:0200000012C02C
:10000200FECFFDCFFCCFFBCFFACFF9CFF8CFF7CFA2
:10001200F6CFF5CFF4CFF3CFF2CFF1CFF0CFEFCFD2
:10002200EECFEDCFF894EE27ECBBF1E0FBBFEBBFD8
:10003200E5BF8DE0A2E0BB27ED938A95E9F780E06A
:1000420094E0A0E6ED930197E9F7EFE5EDBFE4E078
:10005200EEBFC0E6D1E000C0EFE1E7BBE0E0E8BB05
:10006200E4BBE5BBE1BBE2BBE3BFE2BFEFBDEEBD7C
:10007200EDBDECBDE7BDE6BDEBBDEABDE9BDE8BD4A
:10008200E2BDE5BDE4BDE3BDE9BFE5BFEAB9E0E835
:10009200E8B9E0E0E0BFE6B9EDB9E6BFFFCFFFCFD8
:00000001FF
