:0A0000000C943F000C9400000C94D7
:10000A0000000C9400000C9400000C9400000C9466
:10001A0000000C9400000C9400000C9400000C9456
:10002A0000000C9400000C9400000C9400000C9446
:10003A0000000C9400000C9400000C9400000C9436
:10004A0000000C9400000C9400001027E8036400E0
:10005A000A00010000100001100001004B656C61EC
:10006A007320584949204950410080C0020060016C
:10007A0074000000F894EE27ECBBF1E0FBBFEBBF85
:10008A00E5BF8DE0A2E0BB27ED938A95E9F780E012
:10009A0094E0A0E6ED930197E9F7E6E7F0E08591B1
:1000AA009591009761F0A591B59105901590BF01C2
:1000BA00F00105900D920197E1F7FB01F0CFEFE512
:1000CA00EDBFE4E0EEBFC0E6D1E00C946C00E0E0E6
:1000DA00EABBEBBBE7BBE8BBE7EFE4BBE5BBE0E0B1
:1000EA00E1BBE2BBE3BFE2BFECBFEFBDEEBDEDBDDE
:1000FA00ECBDE7BDE6BDEBBDEABDE9BDE8BDE2BDCD
:10010A00E5BDE4BDE3BDE9BFE5BFE4BFEAB9E0E8A8
:10011A00E8B9E0E0E0BFE6B9EDB9E6BFA8E06ED025
:10012A00E7EDF0E0E1E0EA93A0E02AD0A6E6B0E04D
:10013A0056D0ACE2B1E0A2D0F3CFFFCF1A931A2F78
:10014A00E5B3EF70AE2FE12FE07FEA2BE5BB84E148
:10015A008A95F1F7AA9A84E18A95F1F7AA9884E137
:10016A008A95F1F774C0AA93A881E8DFE881E2953D
:10017A00E883A881E3DF88EC8A95F1F72196089550
:10018A001A930A931A2F0A81E12FF0E0E05AFE4FE0
:10019A00E081E00FAE2FE7DF502E412E1981088152
:1001AA0023960895A2E055D0ACE0DDDFA1E051D05E
:1001BA00E0E04E2E5E2E08951A931A2F1A3011F08F
:1001CA00571438F0E0E0EA934394A42DD9DF1A30AB
:1001DA00F1F15394A89AA12FC6DFA89838C044D049
:1001EA009D01F9012F5F3F4FE4911E2FE03019F076
:1001FA00A12FE2DFF6CF3DD0249608951A931A2F45
:10020A00E4B3E06FE4BBA29AA09AA19AAA98A8982C
:10021A00A998712EE12FE058E0936201E12FE05492
:10022A00E0936301A4E1B0E029D017D016D015D02D
:10023A00A0E284DF8CE291E00197F1F7A8E293DF74
:10024A00A4E091DFA5E88FDFA6E08DDFABDF19918F
:10025A00089589DFA3E0B0E011C0A0E36FDF8CE26C
:10026A0091E00197F1F708953A932A931A930A9322
:10027A0008953B812A81198108810895109639F0E1
:10028A00A89588EB9BE00197F1F71197C9F70895B4
:00000001FF
